01                   Some Name                  Some Surname            Some Other Surname           Some Address, 1, 10
02000001000000010000USD                                                                                                 
02000002000000020000EUR                                                                                                 
02000003000000030000GBP                                                                                                 
03000003000000060000                                                                                                    
